{
  "_format": "hh-sol-artifact-1",
  "contractName": "DistributionExecutable",
  "sourceName": "contracts/DataMarketplace.sol",
  "abi": [
    {
      "inputs": [
        {
          "internalType": "address",
          "name": "gateway_",
          "type": "address"
        },
        {
          "internalType": "address",
          "name": "gasReceiver_",
          "type": "address"
        }
      ],
      "stateMutability": "nonpayable",
      "type": "constructor"
    },
    {
      "inputs": [],
      "name": "InvalidAddress",
      "type": "error"
    },
    {
      "inputs": [],
      "name": "NotApprovedByGateway",
      "type": "error"
    },
    {
      "inputs": [
        {
          "internalType": "bytes32",
          "name": "commandId",
          "type": "bytes32"
        },
        {
          "internalType": "string",
          "name": "sourceChain",
          "type": "string"
        },
        {
          "internalType": "string",
          "name": "sourceAddress",
          "type": "string"
        },
        {
          "internalType": "bytes",
          "name": "payload",
          "type": "bytes"
        }
      ],
      "name": "execute",
      "outputs": [],
      "stateMutability": "nonpayable",
      "type": "function"
    },
    {
      "inputs": [
        {
          "internalType": "bytes32",
          "name": "commandId",
          "type": "bytes32"
        },
        {
          "internalType": "string",
          "name": "sourceChain",
          "type": "string"
        },
        {
          "internalType": "string",
          "name": "sourceAddress",
          "type": "string"
        },
        {
          "internalType": "bytes",
          "name": "payload",
          "type": "bytes"
        },
        {
          "internalType": "string",
          "name": "tokenSymbol",
          "type": "string"
        },
        {
          "internalType": "uint256",
          "name": "amount",
          "type": "uint256"
        }
      ],
      "name": "executeWithToken",
      "outputs": [],
      "stateMutability": "nonpayable",
      "type": "function"
    },
    {
      "inputs": [],
      "name": "gasService",
      "outputs": [
        {
          "internalType": "contract IAxelarGasService",
          "name": "",
          "type": "address"
        }
      ],
      "stateMutability": "view",
      "type": "function"
    },
    {
      "inputs": [],
      "name": "gateway",
      "outputs": [
        {
          "internalType": "contract IAxelarGateway",
          "name": "",
          "type": "address"
        }
      ],
      "stateMutability": "view",
      "type": "function"
    },
    {
      "inputs": [
        {
          "internalType": "string",
          "name": "destinationChain",
          "type": "string"
        },
        {
          "internalType": "string",
          "name": "destinationAddress",
          "type": "string"
        },
        {
          "internalType": "address[]",
          "name": "destinationAddresses",
          "type": "address[]"
        },
        {
          "internalType": "string",
          "name": "symbol",
          "type": "string"
        },
        {
          "internalType": "uint256",
          "name": "amount",
          "type": "uint256"
        }
      ],
      "name": "sendToMany",
      "outputs": [],
      "stateMutability": "payable",
      "type": "function"
    }
  ],
  "bytecode": "0x60c06040523480156200001157600080fd5b506040516200186f3803806200186f83398181016040528101906200003791906200017b565b81600073ffffffffffffffffffffffffffffffffffffffff168173ffffffffffffffffffffffffffffffffffffffff161415620000a0576040517fe6c4247b00000000000000000000000000000000000000000000000000000000815260040160405180910390fd5b8073ffffffffffffffffffffffffffffffffffffffff1660808173ffffffffffffffffffffffffffffffffffffffff1681525050508073ffffffffffffffffffffffffffffffffffffffff1660a08173ffffffffffffffffffffffffffffffffffffffff16815250505050620001c2565b600080fd5b600073ffffffffffffffffffffffffffffffffffffffff82169050919050565b6000620001438262000116565b9050919050565b620001558162000136565b81146200016157600080fd5b50565b60008151905062000175816200014a565b92915050565b6000806040838503121562000195576200019462000111565b5b6000620001a58582860162000164565b9250506020620001b88582860162000164565b9150509250929050565b60805160a051611656620002196000396000818161038301526105310152600081816101150152818161015501528181610280015281816103a901528181610470015281816105ca015261067c01526116566000f3fe60806040526004361061004a5760003560e01c8063116191b61461004f5780631a98b2e01461007a57806349160658146100a35780636a22d8cc146100cc578063fbd9497b146100f7575b600080fd5b34801561005b57600080fd5b50610064610113565b6040516100719190610895565b60405180910390f35b34801561008657600080fd5b506100a1600480360381019061009c91906109eb565b610137565b005b3480156100af57600080fd5b506100ca60048036038101906100c59190610afb565b610262565b005b3480156100d857600080fd5b506100e1610381565b6040516100ee9190610be5565b60405180910390f35b610111600480360381019061010c9190610d97565b6103a5565b005b7f000000000000000000000000000000000000000000000000000000000000000081565b60008585604051610149929190610eb5565b604051809103902090507f000000000000000000000000000000000000000000000000000000000000000073ffffffffffffffffffffffffffffffffffffffff16631876eed98c8c8c8c8c878b8b8b6040518a63ffffffff1660e01b81526004016101bc99989796959493929190610f2a565b602060405180830381600087803b1580156101d657600080fd5b505af11580156101ea573d6000803e3d6000fd5b505050506040513d601f19601f8201168201806040525081019061020e9190610fde565b610244576040517f500c44b400000000000000000000000000000000000000000000000000000000815260040160405180910390fd5b6102558a8a8a8a8a8a8a8a8a610665565b5050505050505050505050565b60008282604051610274929190610eb5565b604051809103902090507f000000000000000000000000000000000000000000000000000000000000000073ffffffffffffffffffffffffffffffffffffffff16635f6970c38989898989876040518763ffffffff1660e01b81526004016102e19695949392919061100b565b602060405180830381600087803b1580156102fb57600080fd5b505af115801561030f573d6000803e3d6000fd5b505050506040513d601f19601f820116820180604052508101906103339190610fde565b610369576040517f500c44b400000000000000000000000000000000000000000000000000000000815260040160405180910390fd5b61037787878787878761080e565b5050505050505050565b7f000000000000000000000000000000000000000000000000000000000000000081565b60007f000000000000000000000000000000000000000000000000000000000000000073ffffffffffffffffffffffffffffffffffffffff1663935b13f6846040518263ffffffff1660e01b815260040161040091906110d9565b60206040518083038186803b15801561041857600080fd5b505afa15801561042c573d6000803e3d6000fd5b505050506040513d601f19601f820116820180604052508101906104509190611139565b90508073ffffffffffffffffffffffffffffffffffffffff1663095ea7b37f0000000000000000000000000000000000000000000000000000000000000000846040518363ffffffff1660e01b81526004016104ad929190611175565b602060405180830381600087803b1580156104c757600080fd5b505af11580156104db573d6000803e3d6000fd5b505050506040513d601f19601f820116820180604052508101906104ff9190610fde565b5060008585604051602001610515929190611276565b604051602081830303815290604052905060003411156105c8577f000000000000000000000000000000000000000000000000000000000000000073ffffffffffffffffffffffffffffffffffffffff1663c62c200234308b8b868a8a336040518963ffffffff1660e01b815260040161059597969594939291906112ef565b6000604051808303818588803b1580156105ae57600080fd5b505af11580156105c2573d6000803e3d6000fd5b50505050505b7f000000000000000000000000000000000000000000000000000000000000000073ffffffffffffffffffffffffffffffffffffffff1663b541708489898488886040518663ffffffff1660e01b815260040161062995949392919061137a565b600060405180830381600087803b15801561064357600080fd5b505af1158015610657573d6000803e3d6000fd5b505050505050505050505050565b6000858581019061067691906114ac565b905060007f000000000000000000000000000000000000000000000000000000000000000073ffffffffffffffffffffffffffffffffffffffff1663935b13f686866040518363ffffffff1660e01b81526004016106d59291906114f5565b60206040518083038186803b1580156106ed57600080fd5b505afa158015610701573d6000803e3d6000fd5b505050506040513d601f19601f820116820180604052508101906107259190611139565b905060008251846107369190611577565b905060005b83518110156107ff578273ffffffffffffffffffffffffffffffffffffffff1663a9059cbb858381518110610773576107726115a8565b5b6020026020010151846040518363ffffffff1660e01b8152600401610799929190611175565b602060405180830381600087803b1580156107b357600080fd5b505af11580156107c7573d6000803e3d6000fd5b505050506040513d601f19601f820116820180604052508101906107eb9190610fde565b5080806107f7906115d7565b91505061073b565b50505050505050505050505050565b505050505050565b600073ffffffffffffffffffffffffffffffffffffffff82169050919050565b6000819050919050565b600061085b61085661085184610816565b610836565b610816565b9050919050565b600061086d82610840565b9050919050565b600061087f82610862565b9050919050565b61088f81610874565b82525050565b60006020820190506108aa6000830184610886565b92915050565b6000604051905090565b600080fd5b600080fd5b6000819050919050565b6108d7816108c4565b81146108e257600080fd5b50565b6000813590506108f4816108ce565b92915050565b600080fd5b600080fd5b600080fd5b60008083601f84011261091f5761091e6108fa565b5b8235905067ffffffffffffffff81111561093c5761093b6108ff565b5b60208301915083600182028301111561095857610957610904565b5b9250929050565b60008083601f840112610975576109746108fa565b5b8235905067ffffffffffffffff811115610992576109916108ff565b5b6020830191508360018202830111156109ae576109ad610904565b5b9250929050565b6000819050919050565b6109c8816109b5565b81146109d357600080fd5b50565b6000813590506109e5816109bf565b92915050565b60008060008060008060008060008060c08b8d031215610a0e57610a0d6108ba565b5b6000610a1c8d828e016108e5565b9a505060208b013567ffffffffffffffff811115610a3d57610a3c6108bf565b5b610a498d828e01610909565b995099505060408b013567ffffffffffffffff811115610a6c57610a6b6108bf565b5b610a788d828e01610909565b975097505060608b013567ffffffffffffffff811115610a9b57610a9a6108bf565b5b610aa78d828e0161095f565b955095505060808b013567ffffffffffffffff811115610aca57610ac96108bf565b5b610ad68d828e01610909565b935093505060a0610ae98d828e016109d6565b9150509295989b9194979a5092959850565b60008060008060008060006080888a031215610b1a57610b196108ba565b5b6000610b288a828b016108e5565b975050602088013567ffffffffffffffff811115610b4957610b486108bf565b5b610b558a828b01610909565b9650965050604088013567ffffffffffffffff811115610b7857610b776108bf565b5b610b848a828b01610909565b9450945050606088013567ffffffffffffffff811115610ba757610ba66108bf565b5b610bb38a828b0161095f565b925092505092959891949750929550565b6000610bcf82610862565b9050919050565b610bdf81610bc4565b82525050565b6000602082019050610bfa6000830184610bd6565b92915050565b600080fd5b6000601f19601f8301169050919050565b7f4e487b7100000000000000000000000000000000000000000000000000000000600052604160045260246000fd5b610c4e82610c05565b810181811067ffffffffffffffff82111715610c6d57610c6c610c16565b5b80604052505050565b6000610c806108b0565b9050610c8c8282610c45565b919050565b600067ffffffffffffffff821115610cac57610cab610c16565b5b610cb582610c05565b9050602081019050919050565b82818337600083830152505050565b6000610ce4610cdf84610c91565b610c76565b905082815260208101848484011115610d0057610cff610c00565b5b610d0b848285610cc2565b509392505050565b600082601f830112610d2857610d276108fa565b5b8135610d38848260208601610cd1565b91505092915050565b60008083601f840112610d5757610d566108fa565b5b8235905067ffffffffffffffff811115610d7457610d736108ff565b5b602083019150836020820283011115610d9057610d8f610904565b5b9250929050565b60008060008060008060a08789031215610db457610db36108ba565b5b600087013567ffffffffffffffff811115610dd257610dd16108bf565b5b610dde89828a01610d13565b965050602087013567ffffffffffffffff811115610dff57610dfe6108bf565b5b610e0b89828a01610d13565b955050604087013567ffffffffffffffff811115610e2c57610e2b6108bf565b5b610e3889828a01610d41565b9450945050606087013567ffffffffffffffff811115610e5b57610e5a6108bf565b5b610e6789828a01610d13565b9250506080610e7889828a016109d6565b9150509295509295509295565b600081905092915050565b6000610e9c8385610e85565b9350610ea9838584610cc2565b82840190509392505050565b6000610ec2828486610e90565b91508190509392505050565b610ed7816108c4565b82525050565b600082825260208201905092915050565b6000610efa8385610edd565b9350610f07838584610cc2565b610f1083610c05565b840190509392505050565b610f24816109b5565b82525050565b600060c082019050610f3f600083018c610ece565b8181036020830152610f52818a8c610eee565b90508181036040830152610f6781888a610eee565b9050610f766060830187610ece565b8181036080830152610f89818587610eee565b9050610f9860a0830184610f1b565b9a9950505050505050505050565b60008115159050919050565b610fbb81610fa6565b8114610fc657600080fd5b50565b600081519050610fd881610fb2565b92915050565b600060208284031215610ff457610ff36108ba565b5b600061100284828501610fc9565b91505092915050565b60006080820190506110206000830189610ece565b8181036020830152611033818789610eee565b90508181036040830152611048818587610eee565b90506110576060830184610ece565b979650505050505050565b600081519050919050565b60005b8381101561108b578082015181840152602081019050611070565b8381111561109a576000848401525b50505050565b60006110ab82611062565b6110b58185610edd565b93506110c581856020860161106d565b6110ce81610c05565b840191505092915050565b600060208201905081810360008301526110f381846110a0565b905092915050565b600061110682610816565b9050919050565b611116816110fb565b811461112157600080fd5b50565b6000815190506111338161110d565b92915050565b60006020828403121561114f5761114e6108ba565b5b600061115d84828501611124565b91505092915050565b61116f816110fb565b82525050565b600060408201905061118a6000830185611166565b6111976020830184610f1b565b9392505050565b600082825260208201905092915050565b6000819050919050565b6111c2816110fb565b82525050565b60006111d483836111b9565b60208301905092915050565b6000813590506111ef8161110d565b92915050565b600061120460208401846111e0565b905092915050565b6000602082019050919050565b6000611225838561119e565b9350611230826111af565b8060005b858110156112695761124682846111f5565b61125088826111c8565b975061125b8361120c565b925050600181019050611234565b5085925050509392505050565b60006020820190508181036000830152611291818486611219565b90509392505050565b600081519050919050565b600082825260208201905092915050565b60006112c18261129a565b6112cb81856112a5565b93506112db81856020860161106d565b6112e481610c05565b840191505092915050565b600060e082019050611304600083018a611166565b818103602083015261131681896110a0565b9050818103604083015261132a81886110a0565b9050818103606083015261133e81876112b6565b9050818103608083015261135281866110a0565b905061136160a0830185610f1b565b61136e60c0830184611166565b98975050505050505050565b600060a082019050818103600083015261139481886110a0565b905081810360208301526113a881876110a0565b905081810360408301526113bc81866112b6565b905081810360608301526113d081856110a0565b90506113df6080830184610f1b565b9695505050505050565b600067ffffffffffffffff82111561140457611403610c16565b5b602082029050602081019050919050565b6000611428611423846113e9565b610c76565b9050808382526020820190506020840283018581111561144b5761144a610904565b5b835b81811015611474578061146088826111e0565b84526020840193505060208101905061144d565b5050509392505050565b600082601f830112611493576114926108fa565b5b81356114a3848260208601611415565b91505092915050565b6000602082840312156114c2576114c16108ba565b5b600082013567ffffffffffffffff8111156114e0576114df6108bf565b5b6114ec8482850161147e565b91505092915050565b60006020820190508181036000830152611510818486610eee565b90509392505050565b7f4e487b7100000000000000000000000000000000000000000000000000000000600052601260045260246000fd5b7f4e487b7100000000000000000000000000000000000000000000000000000000600052601160045260246000fd5b6000611582826109b5565b915061158d836109b5565b92508261159d5761159c611519565b5b828204905092915050565b7f4e487b7100000000000000000000000000000000000000000000000000000000600052603260045260246000fd5b60006115e2826109b5565b91507fffffffffffffffffffffffffffffffffffffffffffffffffffffffffffffffff82141561161557611614611548565b5b60018201905091905056fea2646970667358221220a76ec89d38b46661e695db0b097dd8b89aeca264b457447042bd60de61c1e65864736f6c63430008090033",
  "linkReferences": {},
  "deployedLinkReferences": {}
}